:020000040800F2
:10000000E8060020D50000083F1400083D14000851
:1000100000000000000000000000000000000000E0
:100020000000000000000000000000003D18000873
:100030000000000000000000711500083F180008D3
:10004000E7000008E7000008E7000008E7000008F4
:10005000E700000809060008E7000008E7000008BC
:1000600000000000E7000008E700000800000000B2
:10007000E7000008E7000008E700000800000000B3
:10008000E7000008E700000800000000E7000008A3
:1000900000000000E7000008E7000008E700000893
:1000A00000000000E700000800000000E700000872
:1000B000E700000800000000000000000000000051
:1000C0000348854600F0F2F900480047DD040008C7
:1000D000E80600200448804704480047FEE7FEE7A2
:1000E000FEE7FEE7FEE7FEE749180008C10000084A
:1000F00003460B439B0703D009E008C9121F08C041
:10010000042AFAD203E00B780370401C491C521EEB
:10011000F9D27047D2B201E00270401C491EFBD2F6
:1001200070470022F6E710B513460A460446194602
:10013000FFF7F0FF204610BDF8B502464A40D40F45
:1001400042004B0052085B089A4202D2024608461F
:1001500011464A0023D0C30D4A00DDB2120EAD1A7B
:10016000202D35DA49020126490AF6058A19002CA4
:1001700000D0524220214F1B1146B9402A4110188D
:10018000C20D9A4221D0002C17D0012D08DCDA05CF
:10019000801AD20F8019D207DBB200F04DF9F8BDFA
:1001A000DA05801A012340001B06C01880185A4245
:1001B0008018CA0F1043490007E04908C2071143DD
:1001C000DA05801A80194008801800F02DF9F8BD72
:1001D00061000122511A001BF7E70122D2075140AA
:1001E000AAE70122D2075040A6E7024670B54A406E
:1001F000D30FDB0740002DD04A002AD0010E140E89
:10020000000212020919400A520A8418E501044644
:100210005443000A120A2E045043A4194219200C18
:10022000C543AA18120C0125AD03521C5219120421
:100230007F39240400D0521C104301D44000491ED1
:10024000C2B20C06C0092018401C4008802A02D007
:1002500003E0002070BD40084000002900DA0020C3
:10026000184370BD70B502464A40D50F40004A00A1
:10027000ED0740085208002814D0002A12D0C40DFF
:10028000D30D41020120C0055202490A520AE41A64
:10029000091812187D34914201D3641C00E0490012
:1002A000002C01DA002070BD0023914201D3891A8D
:1002B0000343400849000028F7D100290AD09142A1
:1002C00002D10121C90705E0914201D2012101E0DB
:1002D0000121C943E005C018401900F0A5F870BD20
:1002E0000122D207002800DB101A002900DB511A76
:1002F000814201D301207047002070470122D207BC
:10030000002800DB101A002900DB511A814201D9B4
:100310000120704700207047C217C10F504010B530
:100320004018CA079623002100F086F810BDC20FBE
:10033000410040020123400ADB05D207090EC01824
:100340007F2901DA00207047962903DC9623591A89
:10035000C84001E096398840002AF4D040427047F6
:10036000CB0FDB07490010B5490802460A4307D006
:100370000A0D07240903E401090B121B002A01DC02
:10038000002010BDC900440F0C43C100E018D20585
:10039000801800F049F810BD70B50446002903D05C
:1003A00000202022012310E0002801D00020C043BB
:1003B000C046C0460DE02546D5408D4205D30D46CA
:1003C0009540641B1D46954040191546521E002D50
:1003D000F1DC214670BD000070B5002504462E46B4
:1003E000002911D0002C01DA01254442002901DA4C
:1003F000012649422046FFF7CFFFB54200D04042D8
:10040000002D00D0494270BD002C02DA0121C9073D
:1004100002E0002C00DD03490846C046C0462146E4
:1004200070BD0000FFFFFF7F002904DA401C490077
:1004300001D140084000704770B40024050C05D17C
:100440001024000402D1002921D01124050E01D16D
:1004500000020834050F01D10001241D850F01D1D0
:100460008000A41C002801DB4000641C002908D087
:1004700020252E1B0D46F540A14000D00121294327
:10048000084301061B1B000ADB1D02D5002070BCBF
:100490007047DB05181880180029F8DA401C49005D
:1004A000F5D170BC40084000704700001CB50948F9
:1004B00000900948019005460126009C05E0E3688C
:1004C00007CC33430C3C98471034AC42F7D3FFF7CA
:1004D000FBFD0000582300087823000880B50020A9
:1004E0000849C02805D00122D20682580A50001DB2
:1004F000F7E7012040070449086001F0D7FC00201D
:1005000080BDC0460000002008ED00E01CB50024BE
:10051000019401688A68D2070BD18A680E4B1A428F
:1005200009D0816B10220A438263C16B01242143ED
:10053000C16320461CBD8868012202438A60C4480A
:100540000068C449FFF728FF019001980028F0D007
:100550000198401EF8E7C04615000080F0B585B050
:100560001E4800680026866304960396029601964C
:10057000052000F097FA1D4C1D4D102E14D2204678
:1005800000F066FA0027102F0CD02046294600F014
:1005900002FA204600F064F901A9CA591018C8519E
:1005A0003F1DF0E7761CE8E714200D4C242807D007
:1005B00001A909181439096809092150001DF5E736
:1005C000216A0848FFF7E8FE608181B2606948430C
:1005D0000549FFF7E1FEA08005B0F0BD5401002001
:1005E000D000002050FB4A00FF0F00001401002043
:1005F0001027000005200007022100F041FCFA202E
:1006000000F050FAF6E7000080B504480178491C74
:100610000170012000F06EFB80BDC046D0000020BC
:10062000B0B57D20C40000F03BFC0519064C2068E5
:10063000C00305D500F034FCA842F8D30320B0BDB8
:10064000024820600020B0BD102002401180000050
:10065000F8B504463420205C012801D1022539E098
:100660002746343701253D7021688A68A06BD20780
:1006700022D1812252009043801CA063CE68C868BA
:1006800003229043C8600125E8078B6803438B6011
:100690001640009600F004FC064620688168002998
:1006A0000DD500F0FDFB801B0328F6D3A16B1020B5
:1006B0000843022188430AE02021084307E0C1687B
:1006C000009A1143C160A06B0221884300250021DC
:1006D0003970A0632846F8BDF0B587B00446002500
:1006E000142D0BD02046FFF7B3FF002837D11D484B
:1006F0004068400202A948512D1DF1E702A8071DDC
:100700000025052D1ED0A90002AA505851180091AD
:100710006B1C01970446194605290AD240CFB44202
:100720000A4600DC2A46B44200DB3446491C154622
:10073000F2E7A90002AA505000980460019F3F1DF3
:100740001D46DEE704984012064AD06090681061AA
:100750000120C003116801431160002000E0012066
:1007600007B0F0BD44240140FEB5002402943422B9
:10077000825C012A01D10220FEBD0746343706689B
:10078000B268520715D401970D684B68012700978E
:10079000AF402D4A934212D1B06AB843B0622846A6
:1007A0000B3801282046019F39D80B2D19D02B4832
:1007B00018E0816B20220A43826301202FE0B26A95
:1007C0003A43B262C06A421E072A2AD228460B3830
:1007D00001282046019F22D80B2D09D000988005C2
:1007E00008E01D4819490A6802400A60204616E0E0
:1007F0000098C00515490A6802430A600B2D20467F
:100800000DD1134800681349FFF7C6FD0A21414383
:10081000029102980028E9D00298411EF8E73C7046
:10082000FEBD009A12079042D0D0726907200240A4
:1008300089689142CAD072698243726101407069CD
:1008400008437061C2E7C04601100000082701405C
:10085000C800002040420F00FFFF7FFFFFFFBFFFE7
:100860000068006C70470000F8B50125002854D0DE
:10087000044606462436806B002805D100203074DB
:10088000E063204600F086F8A06BC00641D42068E3
:10089000816849073DD481214900A26B8A43911C9C
:1008A000A1638168C9070CD1C16818229143A2686D
:1008B0000A43C2600F21090702698A436168114334
:1008C0000161C168314A0A40C260A16A491E4A1EDC
:1008D00091410903227E9303627E55031D43E36821
:1008E00027692B430B43B91E4D424D41AD001D43BB
:1008F000317849002943A37E012B13D1002A0ED061
:10090000A26B20231343A363E26B01231343E3632E
:1009100008E0A06B10210143A1632846F8BD012225
:1009200012041143E269FF23C2339A4202D0236AC0
:1009300019431143C2680A43C260E26A531E072B7F
:100940001FD243690725AB4343612A4043691343E0
:100950004361C0680E4A02408A4207D10025E56320
:10096000A06B0121014302208143D5E7A06B102138
:10097000014302208143A163E06B01252843E0632A
:10098000CBE701231B079A42DBD0E2E719C2FEFF47
:10099000E7FF3FC37047F8B50D4604464069082895
:1009A00001D1082704E02068C068C00736D10C27B1
:1009B00000F076FA064621680868384211D1681CB2
:1009C000F9D0002D04D000F06BFA801BA842F2D9B8
:1009D000342000212154A06B04210143A163032092
:1009E000F8BD01204202A36B1343A363CA6812053A
:1009F000920F25D1627E002A22D10A6812071FD5E4
:100A00008A68520713D4224638324B680C25AB4310
:100A10004B60FF2502351368AB430FE03420002103
:100A20002154A06B20210143A1630120F8BDA26BDA
:100A300020231343A36322463C32E36B034313603A
:100A4000227E0020002A00D0F8BD0C220A60F8BDEA
:100A500070B5044600688068022540071DD4342024
:100A6000205C012819D026463436012535702046F1
:100A7000FFF74CFD002810D1A06B0949014001206F
:100A800000020818A0630025E56320681C210160AE
:100A90003570816804220A438260284670BDC046D2
:100AA000FEF0FFFFB0B5044600F0FAF90546601C01
:100AB00002D004484068041900F0F2F9401BA0423B
:100AC000FAD3B0BDC00000200120C0076A490A68FF
:100AD00002430A600868C043C00F7047F8B5544A23
:100AE0001178012901D10220F8BD01210091117076
:100AF000504A1268D20A1C2313404F4AD5584F4B14
:100B00001C682F68FAB24E4E94422AD13C0C3440F5
:100B10005968A14225D119693C0AE4B2A14220D109
:100B200099686F68FCB2A1421BD1390C454C214039
:100B3000DC688C4215D15969AC68444F3C40A142F5
:100B40000FD19969EC683C40A1420AD1D9692F695B
:100B5000BCB2A14205D1390C3B4C21401C6A8C42ED
:100B600018D01A606988314059606978196129790B
:100B70009960E988334A1140D960A968334A114025
:100B80005961E96811409961298AD961698A2E4AB7
:100B9000114019620268D107374B05D08188FF24C4
:100BA0002402FF344C409C61910704D58168C468DD
:100BB00024020C431C610C2111400C290BD104466A
:100BC000103416CC0C43FF208243C1435140D868F7
:100BD0000840204318E051070DD4110715D541698D
:100BE0008069DA68D2B20243FF208143C4434C409B
:100BF000D868204007E0D968DA68FF24A2432402BD
:100C00000C40006920431043D8601048401C19680C
:100C10000143196000980006196801431960FF201C
:100C2000D866FFF7FDFC0021014A1170F8BDC046EF
:100C3000CC020020041002401C23000800210240C6
:100C4000FF010000FF070000FF3F0000FFFF010061
:100C50000120C106084A13680B4313607047C04661
:100C60000120800704490A6802430A6009680140BC
:100C7000484248417047C0461420024006488168F7
:100C8000490001D401207047044901600449016012
:100C900080684000C00F70470C2002403B2A1908B2
:100CA0007F6E5D4C0648C168002901D40020704762
:100CB0000449016004490160C068C00F7047C04624
:100CC0000820024023016745AB89EFCDB0B501286C
:100CD0000CD1074C0025257000F0E2F8E060607848
:100CE000012803D16078012800D16570B0BDC046ED
:100CF000D000002080B504490A68024202D0086092
:100D0000FFF7E4FF80BDC0460C180240F0B589B083
:100D1000089157490590884201D0022000E0012047
:100D2000052109070026059A8A42009600D0009006
:100D300005982030019037463546334608980068BC
:100D40000146D94000D190E0012214469C40204049
:100D5000069000D184E007930395049608984668AE
:100D600010213143122912D11C21049801400F2671
:100D70008E4002970798C708BD00019F7859B0437D
:100D8000089B1E698E4006437E51029F5E680321C8
:100D900030460840B8400291B9403D46059F3B6847
:100DA0008B4303433B602F46C943122E12D8B240F7
:100DB000324802420ED0059B98680840089AD268D3
:100DC000BA4002439A603009079A90405A68A24399
:100DD00002435A60059AD068084008998968B9406A
:100DE0000143D160F000049E224C039D079B37D540
:100DF000182028400F2181401A46029B9A43A218CE
:100E0000136E8B4300998140194311661A4801689B
:100E100008984268D00302D50698014301E006987D
:100E200081431548016041689003079B02D50698ED
:100E3000014301E0069881430F4841602168D002D8
:100E400002D50698014301E006988143216061685C
:100E5000900202D50698014301E006988143616043
:100E6000361DBF1C08355B1C68E709B0F0BDC046E5
:100E700000040050001802408018024006000600DE
:100E800042690A4201D0282200E0182281507047AE
:100E9000002A01D0182200E028228150704700006B
:100EA000054800687047C0461A48406802490A6809
:100EB000101808607047C046E402002080B5032087
:100EC00000F008F8002801D0012080BD00F024F8CF
:100ED000002080BD70B50F4E71680124002916D026
:100EE00005467D20C000FFF757FA01466C480068B0
:100EF000FFF752FA00F01CFA032D08D8002806D19B
:100F00000024E0432946224600F026F835602046BA
:100F100070BDC046C000002082B00948416801226F
:100F20001143416041681140019101991107026824
:100F30000A430260006808400090009802B07047C1
:100F40003C1002401F2101400120884001490860F7
:100F50007047C04600E100E080B500F071FA80BD46
:100F6000FEB500284AD00D4602904B48006801218A
:100F700001910840854214D9474908680126B043C9
:100F800028430860454CFFF78BFF0746424800683E
:100F90003040A84205D0FFF783FFC01BA042F5D91F
:100FA00077E0029C206881074D4B0DD5410704D5A1
:100FB000072109031A680A431A600F2109021A68F7
:100FC0008A43A16811431960C00719D132480168EA
:100FD000012001408D421DD22F4A116881431160CA
:100FE0002E4CFFF75DFF05462B480068C00711D067
:100FF000FFF756FF401BA042F6D94AE00120FEBD94
:101000006668002E25D0012E28D1194608390968B6
:10101000890325E0029A1078400707D507200003CE
:101020002F4B19688143D0680843186000F03AF8E4
:101030002B49096889093C220A40BA4989581F226C
:101040000A40D040B8490860B8480068FFF742FF3E
:10105000FEBD194608390968490501E0996D8907FF
:10106000019800D4FEBD19680722914331431960ED
:101070000A4FFFF715FF064619480068382101405E
:101080006068C0008142A1D0FFF70AFF801BB84210
:10109000F2D90320FEBDC0460020024088130000A4
:1010A000C80000200E4801688906490F06D0026872
:1010B00038210A40082A0CD10A487047001F0068EE
:1010C0000004400F042800D90020800006A1085821
:1010D000704700680840183841424141C8037047D2
:1010E0000810024000366E0100093D0000127A002F
:1010F0000024F4004086510100366E01FEB5012542
:10110000002800D1CBE0019502900078C007834F02
:1011100009D102980078800712D40298007800075D
:1011200029D40025BBE0B86838210140082930D116
:1011300038688003EDD5029840680028E9D181E045
:10114000B8688006400F4BD0386801218C02029E9F
:10115000F2680902002A77D008433860FFF7A0FE42
:1011600005463868204200D09BE0FFF799FE401BFF
:101170000228F6D992E0B8683821014018294BD1ED
:10118000386E8007CDD5029840690028019DC8D1EE
:1011900085E0029E7068002866D0B068002851D0B3
:1011A000012004043968A143396085043868A843E4
:1011B0003860FFF775FE386838690C218843B168DC
:1011C000014339617068A04206D0052109048842B4
:1011D0004BD13868284338603868204338604FE086
:1011E000012538684005029A02D5D068002856D0FB
:1011F000AC024B48401C7968014010690843786094
:10120000FFF74EFE06463868204252D1FFF748FEEF
:10121000801B0228F7D941E0386E029949690029FC
:101220005BD0012108433866FFF73AFE0446386E6A
:10123000800700D575E7FFF733FE001B0325022862
:10124000F5D92CE0019D2AE088433860FFF728FE9D
:1012500006463868204200D15FE7FFF721FE801B79
:1012600003250228F5D91AE0002001210A043B6871
:1012700093433B608A043B6893433B6000283DD026
:1012800001204404FFF70CFE05463868204200D0D8
:101290003FE7FFF705FE401BC828F6D9032528467F
:1012A000FEBD1F48401C79680140306908437860E2
:1012B00033E7FFF7F7FEB96889093C220A4019496C
:1012C00089581F220A40D040174908601748006813
:1012D000FFF700FE0028E2D11FE7012188433866AE
:1012E000FFF7DEFD0446386E800700D419E7FFF7EC
:1012F000D7FD001B03250228F5D9D0E74C04FFF7E2
:10130000CFFD06463868204200D102E7FFF7C8FD4E
:10131000801B0325C828F5D9C1E7C046001002404C
:10132000FFFFFEFFC8220008C8000020C000002008
:10133000401E010E01D0012070470749074A506046
:10134000074803680B4003218907591801600020F2
:101350009060072111607047FFFFFF0010E000E080
:1013600020ED00E0B0B5002814D0044605463C3519
:101370006878002804D100202870204600F00CF87E
:101380000220687001CC214600F086FA01206870C6
:101390000020B0BD0120B0BD70470000B0B53C23B7
:1013A000C35C012B01D10220B0BD04463C340223B2
:1013B000637001252570DA41032A14D87A44127922
:1013C00052009744010D0509006800F0B1FA0AE0E7
:1013D000006800F01BFB06E0006800F04DFB02E037
:1013E000006800F0DFFA002020706570B0BD0000DA
:1013F000B0B5054600680124224600F08BFA286843
:101400000B49884205D00B49884202D00A498842DC
:1014100003D1E103426C0A434264816807220A4017
:10142000062A02D00168214301600020B0BDC046F9
:10143000002C01400048014000440140FEE7704795
:10144000002805D4032203469343094A9A1803E06F
:101450000C220240074BD2188007C00E8901C9B286
:101460008140FF2383401068984308431060704711
:1014700000E400E014ED00E0F0B585B01546044648
:101480000846FEF749FF06462846FEF745FF074691
:1014900030463946FEF7A1FE0646E1690391FEF7A4
:1014A000A4FE6169FEF748FE05466061216830468A
:1014B000FEF79BFE02906168019528460091FEF7B9
:1014C00094FE0646A06904973946FEF786FE039906
:1014D000FEF7C8FE0146A068FEF787FE05460298A3
:1014E0003146FEF729FE2946FEF726FE054620690D
:1014F000FEF712FF074628463946FEF7FFFE002892
:1015000009D1E068FEF708FF074628463946FEF78E
:10151000E7FE00280CD138462946FEF75EFE00990A
:10152000FEF7A0FE01460198FEF706FE606100E0AE
:101530002F460498A0613846FEF7F9FE05B0F0BDCD
:1015400070B507490022074B074C084D7F26F6056A
:1015500060C0046042608360C2600261416170BD2E
:10156000CDCC4C3DCF070000CDCC4C3E0000A04080
:1015700070470000F8B514460D460646224800782C
:10158000002801D100F0AAFAEFF31087012181F3BE
:10159000108830462946224600F004F887F3108868
:1015A000F8BDC046F8B514460D461821414316480B
:1015B0004618F06A183602281DD001280ED00027E0
:1015C00000281ED1304600F0B9FAA04219D33046A7
:1015D0002946224600F00FFC274612E0304600F074
:1015E000ADFA0746A04200D32746304629463A4680
:1015F00000F001FC05E030462946224600F0CEFB13
:1016000007463846F8BDC0469401002082B0E0B5D8
:101610000492059304AA019201AA00F005F88CBC7B
:1016200002BC02B008470000F0B59BB005920A4624
:1016300002901A90002418944020179006A8169043
:1016400019941178571C252906D0002900D1E2E011
:1016500016A800F083FBBBE0901C002539782329F5
:1016600009D02B2905D02D2907D030290AD10221F4
:1016700004E0042102E0082100E001210D43401CA8
:101680007F1CEBE70026302909D3392917D80A2215
:1016900072435618303E401C79787F1CF3E72E29A0
:1016A0000DD100240921CA4301780B463A3B9342ED
:1016B00007D30A2262435418303C401CF2E700244E
:1016C00000E007467A1C08466338152813D8C04640
:1016D00078440079400087448F6F7C207C0A7C7CB2
:1016E0007C0A7C7C7C807C7C4F7C617C7C15501CE3
:1016F00011780246E7E7252900D185E046290CD07C
:10170000582966D11746059A1068011D11600168B5
:101710000096019516A810224AE00492059A1068D6
:10172000C11D0720814308460830106003C9FEF739
:1017300017FE0390FEF7FBFD0146009516AF3846F5
:101740002246334600F005FA2E21384600F006FB0B
:1017500003983949FEF749FDFEF7E9FDC1174840F6
:10176000401A6421FEF718FE0095022238463346DF
:1017700000F0EFF9049A2CE01546059A1068011D57
:10178000116004682178002906D016A800F0E6FA56
:10179000641C19980028F5D52A461AE01746059AC0
:1017A0001068011D116001680096019516A80A22B3
:1017B000234600F04BFA0BE01746059A1068011D0E
:1017C00011600168009516A82246334600F0C1F961
:1017D0003A46199C002C2BD433E71446059A10681E
:1017E000011D11600168002008230093019016A8D4
:1017F000102200F02BFA0CE01446059A1068011D27
:101800001160017816A802E016A82521144600F000
:10181000A5FA2246DDE7002C09D0189D002D04D042
:1018200006A902982A46FFF7A5FE2C1900E000241D
:1018300020461BB0F0BDC0460000C842704780B5CE
:10184000FFF732FB80BD00000C4801680C4A0A40DB
:101850000C4909680C4B19405118C918491C016002
:1018600001680A4A0A400A490968C905C90989186C
:1018700001600120C006074908607047041002405B
:101880000000FFFF040FFF1FFF1F0000FFFF00FE0F
:10189000A40FFF1F08ED00E0B0B504688C4A904229
:1018A00004D01A4DA84206D0234608E070239C437A
:1018B0004B6823430FE070239C434B682343A842AB
:1018C00009D0134CA04206D0824CA04203D0824CD7
:1018D000A0421C4604D103242402A343CC681C4329
:1018E00080239C434B69234303608B68C3620B686E
:1018F0008362904205D0774A904202D0764A904265
:1019000001D10969016301214161B0BD00040040BA
:101910000020004010B51F230B4001219940046AAC
:101920008C4304629A40016A1143016210BD0000B9
:10193000F0B5026A01239A430262026A02239A43C3
:101940008E68164344680F688369614A904205D0E7
:10195000604DA84202D0604DA84209D10C25AE438B
:10196000CD68042295433543594A904201D106E09F
:101970003546584A904202D0574A904207D1032236
:10198000120294434E698A692643164300E02646B4
:101990004660732293433B43836149684163056218
:1019A000F0BDC046F0B5026A10239A430262036A92
:1019B000202293438A6812011A4345680C688369A0
:1019C000434EB04207D0434EB0420BD0424EB042DD
:1019D00008D02E460EE0C026B243CE68360140271E
:1019E000BE4332430326B602B5434E698F6937437F
:1019F000BE002E43466073252D02AB4324021C43D8
:101A00008461496881630262F0BDC046F0B501227D
:101A10001302046A9C4304625202036A93438A6875
:101A200012021A4345680B68C469294EB04207D0B8
:101A3000284EB0420CD0284EB04209D02E460FE0BE
:101A40000326B602B243CE6836020A4F37403A4305
:101A500003263603B5434E698F6937433E012E4353
:101A600046607325AC431C43C4614968C16302628C
:101A7000F0BDC04600FBFFFFF8B501221303046A66
:101A80009C430462036A44688D6800950E68C569CA
:101A90000F4FB84205D00F4FB84202D00E4FB84298
:101AA00005D19703BC434F69BF01274300E0274698
:101AB000476073242402A54334022C43C46149685F
:101AC000016451038B430099090319430162F8BD76
:101AD000002C0140004801400044014010B5124C68
:101AE000A8212046FEF71DFB0320206160610F49FD
:101AF000A1610F48E061802020620020A062606246
:101B0000E06221660B4961661021A1662067E066EC
:101B1000606709490F31102804D00A782254491E01
:101B2000401CF8E710BDC046940100203C2300088B
:101B30004C0200203C02002008230008C268016912
:101B4000914201D9D04302E0D24389188068081835
:101B50007047F0B587B01E4605920546C8170A467D
:101B60004240101A04914942039101240C990691B4
:101B70000A2804DB0A21FEF70FFC641CF8E7059F26
:101B8000A74200D82746002E07D00498002802D488
:101B90000698400702D5761E00E00026022106982E
:101BA0000140059800280C460DD100290BD0E868AB
:101BB000002832D40498002818D40698400717D477
:101BC000049803901BE00698C007F0D1002EEED0D9
:101BD000002EECD0B742EAD22021284600F0BEF811
:101BE0002146761EE8680028F2D5E0E72D2102E0C4
:101BF0002B2104980390284600F0B0F82146E868AD
:101C000000280AD400290AD10096069801900A22D9
:101C100028460399059B00F019F807B0F0BD012094
:101C20000699084005990843EED1002EECD0741EA9
:101C3000B442E9D2B742E7D23021284600F08EF80C
:101C4000E86800282646F2D5E7E70000F0B587B03F
:101C50001C461546069001260D9804900C9F029193
:101C60000846A84204D32946FEF796FB761CF8E7FF
:101C70003A460127B442059400D8059604990846CF
:101C80003840002A019006D0002804D1202089077E
:101C900003D4049003E0164615E030210491002C93
:101CA00000D0049016460394002E0CD00598B04244
:101CB00009D2069C2046049900F050F8761EE06890
:101CC000039C0028F0D50698C06800283BD40096F5
:101CD000029E022C01D3641E05E030463946FEF711
:101CE0005BFBA84201D36F43F3E70495069D3046A2
:101CF0003946FEF751FB044614A0015D284600F06A
:101D00002DF8E868002809D47C43361B3846049C2B
:101D10002146FEF741FBBC420746E8D9019800285E
:101D2000009810D000280ED0069D441E84420AD28E
:101D30000599814207D22021284600F00FF8E86873
:101D400000282046F1D507B0F0BDC046303132330F
:101D500034353637383941424344454610B5044698
:101D600042688368581C904201D9184606E02268F0
:101D7000D154A060E168491CE1606268904208D1DA
:101D800021682069FFF7F6FBA168884202D1002094
:101D9000A06010BD0020C043E06010BDFEB5164637
:101DA0000D46C7680021019002910269F943BA42C9
:101DB00002D95418816802E05218816854184268A8
:101DC000C91B8C4200D30C46B44200D33446D01910
:101DD00029462246FEF78CF9E719019881688F425F
:101DE00000D100270299C760361B2D196118002EFB
:101DF000DAD10846FEBDF8B5154604464068A2682B
:101E0000E6688019971BBD4204D22A46FEF770F996
:101E1000751909E00E463A46FEF76AF9F119ED1B0D
:101E200060682A46FEF764F9E560F8BDBCB51A495A
:101E3000884207D2BF2242431B491046FEF7ACFA44
:101E4000193026E000241549231D0C2B0CD00A194B
:101E5000128990421C46F7D8CC18E5880095C95ADB
:101E6000638800F005FA14E00D49884200D3084663
:101E700035214901884200D808465221414309488A
:101E8000081880B2FF21E631FEF786FA4D2189005D
:101E9000401880B2BCBDC046BD0400004623000807
:101EA00085080000C0E0FFFFBC04000096B0FFF70B
:101EB00005F80FAD281D1421FEF733F90126300275
:101EC000079012900B270F9700240D940C940B94FD
:101ED0000A94CB48006814941094CA4908404018EA
:101EE000401C13902846FFF709F9002800D085E12F
:101EF00006970D940C940B94072008900A900AA85A
:101F00002146FFF72DF8002800D077E1FEF7C8FF43
:101F1000BD4DE860119410940F943005BB4B191F10
:101F20000A6802430A600A6882430A60D96801436A
:101F3000D9603746B64EB7493160D96801400A9139
:101F40000A983046FEF7C8FB002800D056E124204E
:101F50003454B4620898F0623462B4763783042053
:101F60000799C131F1617907AA4A32607160B460A2
:101F7000F460376170613046FEF776FC002800D0CF
:101F80003CE10F9407973F031097A1480FA9FEF774
:101F9000EBFB002800D031E1109702260F969C48F9
:101FA0000FA9FEF7E1FB002800D027E11097069863
:101FB0000F9097480FA9FEF7D7FB002800D01DE12E
:101FC00010970C200F9092480FA9FEF7CDFB002828
:101FD00000D013E10FA81C21FEF7A3F80AAF1421CB
:101FE0003846FEF79EF889498868304388608868DB
:101FF000304009900998086830430860086830400C
:10200000099007980E900D960C960B9620200A903A
:10201000099881483946FEF779FE80488049814A0F
:102020000260089A42608460C16004614461846116
:10203000FFF798F9002800D0E0E01494139411946D
:1020400060200F90109475480FA904242246FFF7D2
:10205000A5F9002800D0D1E070482146FFF7C8F963
:102060000FA8039014210491FEF75BF80594674CC8
:102070002068079F38432060206838400A900A98FB
:10208000206830432060206830400A9012961197F3
:1020900010970F960A980520089000070690039C59
:1020A0002146614A90470320109005980F905F48A1
:1020B00021465D4A90470FAC20460499FEF731F85F
:1020C0005249086830430860086830400A90129608
:1020D0001197574810900F970A984F482146524A37
:1020E0009047089E3046FEF72DFF002430462146DB
:1020F0002246FEF731FF4FA108942046FFF786FAEB
:10210000284624300590FFF71BFA4E48006840042B
:1021100014D4FEF7C7FDFEF7B1FD7F2040021590F5
:10212000FF200002149008200F900FA8FEF7D6FCA5
:10213000FEF7CAFCFEF794FDFEF78AFD424CFEF75F
:10214000AFFEE968411AA14204D36978002901D1A0
:10215000012169702969411A3229F0D32861FEF7FB
:10216000FDF96878002801D01E2712E0A8697D21BA
:102170000901884200DB0846142800DC0498C821C5
:102180004143324808183249FEF706F9192109017E
:102190000F1A6F80A888FFF749FE04467F20C0050C
:1021A000A8622C48E862EC80381B00B214282A4848
:1021B00000DC2A48686239B222B20598FFF75CF960
:1021C00006462881154800688663686AFEF7AFF8FE
:1021D00000960190BAB2089821A12346FFF716FA9B
:1021E0006888E9888142079A00D2089A02210698F5
:1021F000FEF74EFE3220FEF755FC9FE7FEF7FAF998
:10220000040FFF1FFF1F0000D00000203410024009
:10221000140100200024014000040050540100205B
:10222000CF070000000400400D0D0008001400500E
:102230000000211068656C6C6F20776F726C6421F0
:102240000A0000002020024060EA000060F0FFFF6A
:10225000BC070000CDCC4C3E000020410000A04057
:1022600025642025642025642025640A00000000E0
:1022700070B51C468A4216D091420B4600DB1346CD
:1022800091420E4600DC1646B042054600DB35465C
:10229000049E984200DB2B465B1A301B5843511AB0
:1022A000FEF79AF80419A0B270BD02E008C8121F28
:1022B00008C1002AFAD170477047002001E001C12F
:1022C000121F002AFBD17047000000000000000030
:1022D00000000000000000000000000000000000FE
:1022E00000000000000000000100000002000000EB
:1022F00003000000040000000600000007000000CA
:102300000800000009000000000000000000545414
:102310005220524547474553000000001C0FFF1F45
:10232000300FFF1F440FFF1F580FFF1F6C0FFF1FC1
:102330001C0FFF1F1C0FFF1F1C0FFF1F5465726D2A
:10234000696E616C000000001900BC04D800A00692
:102350003401850886010000782300080000002071
:10236000D0000000AA22000848240008D000002065
:1023700018060000BA22000800000000000000005B
:10238000000000000000000000000000000000004D
:10239000000000000000000000000000000000003D
:1023A000000000000000000000000000000000002D
:1023B000000000000000000000000000000000001D
:1023C000000000000000000000000000000000000D
:1023D00000000000000000000000000000000000FD
:1023E00000000000000000000000000000000000ED
:1023F00000000000000000000000000000000000DD
:1024000000000000000000000000000000000000CC
:1024100000000000000000000000000000000000BC
:1024200000000000000000000000000000000000AC
:102430000000000000000000040000000100000097
:0824400000127A000000000008
:04000005080000C12E
:00000001FF
